:020000040800F2
:10000000700D00209D0100081D080008E50700088C
:10001000010800088D020008850F0008000000009C
:10002000000000000000000000000000510C00086B
:10003000CD04000800000000E9080008F10D0008E8
:10004000B7010008B7010008B7010008B7010008B0
:10005000B7010008B7010008B7010008B7010008A0
:10006000B7010008B7010008B7010008B701000890
:10007000B7010008B7010008B7010008B701000880
:10008000B7010008B7010008B7010008B701000870
:10009000B7010008B7010008B7010008B701000860
:1000A000B7010008B7010008B7010008B701000850
:1000B000B7010008B7010008B7010008B701000840
:1000C000B7010008B7010008B7010008B701000830
:1000D000B7010008B7010008B7010008B701000820
:1000E00081050008B7010008B7010008B701000842
:1000F000B7010008B7010008B7010008B701000800
:10010000B7010008B7010008B7010008B7010008EF
:10011000B7010008B7010008B7010008B7010008DF
:10012000B701000891030008B7010008B7010008F3
:10013000B7010008B7010008B7010008B7010008BF
:10014000B7010008B7010008B7010008B7010008AF
:10015000B7010008B7010008B7010008B70100089F
:10016000B7010008B7010008B7010008B70100088F
:10017000B7010008B70100080D030008B701000827
:10018000B7010008B7010008DFF80CD000F03CF818
:1001900000480047C9100008700D0020064880473D
:1001A00006480047FEE7FEE7FEE7FEE7FEE7FEE75C
:1001B000FEE7FEE7FEE7FEE7350E000889010008CE
:1001C00040EA01039B0703D009E008C9121F08C0D9
:1001D000042AFAD203E011F8013B00F8013B521E59
:1001E000F9D27047D2B201E000F8012B491EFBD2D0
:1001F00070470022F6E710B513460A460446194632
:10020000FFF7F0FF204610BD064C074D06E0E06802
:1002100040F0010394E8070098471034AC42F6D34D
:10022000FFF7B6FFE41100080412000870B58D183E
:1002300010F8014B14F0030201D110F8012B231127
:1002400006D110F8013B03E010F8016B01F8016BD7
:10025000521EF9D1ABB110F8012B04F00C048A1A2C
:100260000C2C03D0A2EB84129B1C08E010F8014B6D
:10027000A2EB0422F8E712F8014B01F8014B5B1ED8
:10028000F9D5A942D4D3002070BD000001A000F030
:10029000CFFEFEE74275734661756C745F48616E10
:1002A000646C6572000000000649002804D00868EC
:1002B00040F0010008607047086820F00100086005
:1002C0007047000000000550014948617047000078
:1002D000000005500649002804D0086840F480401A
:1002E00008607047086820F480400860704700008C
:1002F0000000055002460020034909691140002909
:1003000000D0012070470000000005502DE9F047A3
:100310000120FFF7EFFF01282FD1194C2068401E64
:1003200020602168DFF85C9031B90021484600F078
:1003300093F8002000F0CEFA2168012918D1124963
:10034000484600F073F80121484600F085F8DFF8D0
:100350003C8040278025A8F10204A61503E0A8F8F8
:10036000007025802680484600F082F80128F6D1EA
:10037000BDE8F0470120FFF7A7BFBDE8F087000008
:100380003407002028640240008800101A1402403C
:1003900070B5164D164E2946304600F077F8012804
:1003A00009D014494020088012488021801E018015
:1003B00081150180FEE7104C206810490844206038
:1003C000304600F05CF850B121680022304600F061
:1003D00077F829463046BDE8704000F011B8216832
:1003E0004FF40022304600F06BF8F2E700080010EE
:1003F000286402401A1402403807002080380100A7
:10040000074A904201D2074801E005481038064AE1
:100410008B0001EA020101D5C1607047816070471D
:1004200010640240006002407D0F7D0F074A904239
:1004300001D2074801E005481038064A8B0001EA5E
:10044000020101D5C16070478160704710640240AD
:10045000006002407D0F7D0F002904D0016841F04B
:10046000010101607047016821F0010101607047DE
:10047000014600200968C90700D0012070470146E5
:1004800000200968090300D50120704702460020BA
:10049000084B9A4201D2084A01E0064A103A8B0002
:1004A00001D5526800E01268044B1A400A4200D09D
:1004B0000120704710640240006002407D0F7D0FF4
:1004C000002A01D001617047C160704701A000F0AF
:1004D000AFBD000044656275674D6F6E5F48616E29
:1004E000646C65720000000070B586B0012108469A
:1004F00000F006FA0121102000F01EFA1E4E07221D
:100500000A21304600F052F907220921304600F056
:100510004DF900248DF8164001208DF817000225B2
:100520008DF81450410204918DF8155004A93046FD
:1005300000F0FEF88DF814506802049004A93046CB
:1005400000F0F6F84FF4E1300090ADF80440ADF85B
:100550000640ADF80840ADF80C400C20ADF80A009C
:10056000064C6946204600F0A7FC0121204600F019
:100570008FFC06B070BD000000000240001001407A
:100580002DE9F0474FF4004A504600F08DF8DFF8AF
:10059000E0904FF00008012718B30025354E377062
:1005A0000A2D0AD000245146484600F00FF90128D0
:1005B00009D086F800806D1CF1E786F8008030785D
:1005C000012804D00AE0641CFF2CECDBE7E72AA03A
:1005D00000F02EFD2E4CA07960B1E771504600F07E
:1005E0005DF84FF40066304600F05EF800283CD01D
:1005F000284D2FE0284800F030FA274D28780128B0
:10060000ECD1A088EA78A9786B78104401EB03213B
:10061000884209D12068A1880844291DFFF7D0FD30
:10062000A771A4F80480D9E72068A1880844291D8F
:10063000FFF7C6FDA088E9780844A080CEE73146E0
:10064000484600F0C3F840B1641CFF2CF7DB287863
:10065000012805D02F700024F1E785F80080F6E727
:100660003046BDE8F04700F019B8BDE8F08700005B
:100670000004024024070020D5E6B5C44553503895
:10068000323636BDD3CAD5D6D0B6CF2E0A0000003A
:100690002C070020280700204C0700200149086093
:1006A00070470000143C014001460020024A1268D5
:1006B0000A4200D001207047143C014030B51B4A6B
:1006C00083790168002B2AD013688B431360111DB6
:1006D0000B680468A3430B60017911440B6804683C
:1006E00023430B60114C083421680368994321604F
:1006F000231D19680568A94319604179102905D09F
:1007000011440A68006802430A6030BD216802682B
:1007100011432160196800680143196030BD0079F8
:10072000104402688A43026030BD0000003C014072
:100730002DE9F041002201274FF0030C07FA02F5E2
:100740000B682B40AB422CD1066853000CFA03F423
:10075000A64306600E79D0F800809E4046EA08065F
:1007600006600E79012E01D0022E12D18668A643B2
:1007700086604E79D0F808809E4046EA080686607A
:100780004668AE43466045688E799640B6B23543BA
:100790004560C568A543C560CC799C40C3681C43CF
:1007A000C460521C102AC9D3BDE8F08110B54B07B4
:1007B000DB0E9A40C90800EB8100016A0F249C40BF
:1007C000A1430162016A1143016210BD024600208B
:1007D00012690A4200D001207047418370470183AB
:1007E0007047000001A000F023FCFEE7486172643E
:1007F0004661756C745F48616E646C6572000000E0
:1008000001A000F015FCFEE74D656D4D616E61675E
:10081000655F48616E646C657200000001A000F0C5
:1008200007BC00004E4D495F48616E646C65720004
:1008300008B54FF4C06000F043F828208DF80000A0
:1008400001208DF801008DF802008DF80300684644
:1008500000F002F808BD000030B50F23C278012572
:100860000178002A1FD0154A126802F4E062C2F52E
:10087000E062C2F30722C2F10404D3404278A240EE
:1008800084781C401443220101F1E02181F8002406
:10089000007800F01F018D404009800000F1E02049
:1008A000C0F8005130BD01F01F00854048098000AC
:1008B00000F1E020C0F8805130BD00000CED00E0F8
:1008C0000249084302490860704700000000FA0529
:1008D0000CED00E010B504462046FFF7FBFC204677
:1008E000BDE81040FFF7E0BC01A000F0A1BB000094
:1008F00050656E6453565F48616E646C65720000AB
:10090000054A002903D0116801431160704711683E
:10091000814311607047000030380240054A0029C9
:1009200003D0116801431160704711688143116061
:100930007047000040380240054A002903D0116882
:1009400001431160704711688143116070470000D6
:100950004438024070B5244B196801F00C01234C57
:1009600000291ED0224E04291DD008291DD0046064
:10097000196801F0F00109091E4A545C0168E14060
:1009800041601C6804F4E054A40A145D21FA04F4E4
:1009900084601B6803F460435B0BD25CD140C16090
:1009A00070BD0460E4E70660E2E70F4A121F1168B9
:1009B000C1F38055116801F03F0135B1B6FBF1F18B
:1009C0001468C4F38814614305E0B4FBF1F11468C2
:1009D000C4F3881461431268C2F30142521C5200EE
:1009E000B1FBF2F10160C3E7083802400024F400D3
:1009F00040787D0114000020002904D0018841F0D6
:100A0000400101807047018821F04001018070475A
:100A10000246002012890A4200D0012070478089D6
:100A2000704730B5028802F441530A884C88CD885B
:100A300022438C882C4322430C8922434C89224335
:100A40008C892243CC8922431A430280828B22F470
:100A500000628283098A018230BD0146032000F0D2
:100A6000B9BA0000F0B587B001210720FFF748FFB1
:100A700001218C032046FFF75FFFFFF7D9FE01211C
:100A80002046FFF74BFF384E05220A213046FFF77C
:100A90008DFE364F052203213846FFF787FE0522DB
:100AA00003213846FFF782FE2011009002258DF8C1
:100AB00005508DF8045000248DF806408DF807404D
:100AC00069463046FFF734FE0426009669463846EC
:100AD000FFF72EFE0820009069463846FFF728FEF3
:100AE0008DF8055001208DF804008DF806408DF832
:100AF000074000961E4D69462846FFF719FE04215F
:100B00002846FFF76AFEADF808404FF48270ADF852
:100B10000A00ADF80C40ADF80E40ADF81040681575
:100B2000ADF812001020ADF81400ADF81640072003
:100B3000ADF818000F4D02A92846FFF772FF0121FA
:100B40002846FFF759FF40F23466304600F014FBA8
:100B5000094D286028683146FFF74BFBAC80AC712B
:100B6000EC7107B0F0BD0000000402400008024034
:100B700000000240003800402C0700202DE9FF470C
:100B80004FF40065029502268DF80D6000248DF863
:100B90000C408DF80E408DF80F40DFF8688002A9F8
:100BA0004046FFF7C5FD0B21012000F05BF80095E2
:100BB0008DF804404FF008098DF8059001258DF857
:100BC00006506846FFF77AFDEF0302978DF80D6037
:100BD0008DF80C408DF80E408DF80F4002A940466C
:100BE000FFF7A6FD0F21012000F03CF800978DF8DB
:100BF00004408DF805908DF806506846FFF75EFDBD
:100C0000BDE8FF87000402402DE9F047814600243B
:100C10004FF40067DFF830807E100C4D08E0394655
:100C20004046FFF7D3FD012800D1641CB44202D036
:100C300028780028F3D0002028704946BDE8F04706
:100C4000022000F0C7B9000000040240280700207D
:100C500001A000F0EDB900005356435F48616E6497
:100C60006C65720010B58A07120F0F23934021F0B4
:100C700003040649214401F608010C689C430C60FA
:100C80000B68904003430B6010BD00000030014032
:100C9000F0B589B005460C46202101A8FFF7A9FA56
:100CA0004AF6C8718C4204D918A000F0C1F909B005
:100CB000F0BD01218DF80410200A8DF805008DF893
:100CC000064001AF1C261DE01C2C0AD88DF80740F9
:100CD00022462946381DFFF773FA01A8FFF794FF53
:100CE000E5E78DF807601C222946381DFFF768FAF2
:100CF00001A8FFF789FF1C351C3CA4B21D21F81C7C
:100D0000FFF777FA002CDFD1D1E70000544350B150
:100D1000A8CEC4B3A4B6C8B9FDB3A4A3ACD2BBB427
:100D2000CEC7EBCEF0B3ACB3F63435303030D7D6D7
:100D3000BDDA2E0A000000000CB5002201920092DC
:100D40002749086840F4803008604FF4A0430868E1
:100D500000F4003000900198401C0190009810B9F8
:100D600001989842F3D10868800302D501200090D1
:100D700000E000920098012831D119484030026803
:100D800042F0805202601748026842F4404202601A
:100D90001348083002680260026842F400420260B0
:100DA000026842F4A0520260021F0F4B13600A68EF
:100DB00042F080720A600A689201FCD50B4A40F248
:100DC00005711160016821F003010160016841F0C3
:100DD000020101600168C1F381010229FAD10CBD51
:100DE000003802400070004019544007003C0240A7
:100DF000704700000D484FF47A710068B0FBF1F0C5
:100E0000401EB0F1807F01D301200AE04FF0E021C5
:100E10004861074AF02010700020886107200861AF
:100E20000020002800D0FEE77047000000000020EE
:100E300023ED00E010B51248016841F47001016033
:100E40001048016841F0010101600E4A002108329A
:100E5000116002680C4B1A400260031D0B4A1A60B5
:100E6000026822F48022026006480C300160FFF71D
:100E700063FF03494FF000608039086010BD000037
:100E800088ED00E000380240FFFFF6FE103000243D
:100E9000002904D0818941F4005181817047818902
:100EA00021F40051818170470246002012880A42D5
:100EB00000D00120704700007FB504460D46208A0F
:100EC00020F44051E88808432082A08941F20C6157
:100ED0008843A9882A8911436A8902431143A18161
:100EE000A08A20F44071A8890843A0826846FFF7D1
:100EF00031FD1E48844202D01D48844201D103982E
:100F000000E00298A189090408D500EBC00101EBBB
:100F1000001029684900B0FBF1F007E000EBC001C8
:100F200001EB001029688900B0FBF1F06422B0FBEE
:100F3000F2F109010B096FF018056B4300EB830018
:100F4000A3891D044FF0320307D503EBC000B0FBAB
:100F5000F2F000F00700084306E003EB0010B0FBDE
:100F6000F2F000F00F00084320817FBD0010014027
:100F7000001401408088C0F308007047C1F30801E5
:100F80008180704701A000F053F8FEE75573616758
:100F9000654661756C745F48616E646C65720000D3
:100FA00070B505460A4C02212046FFF731FD0028A6
:100FB000F9D007480C30058001212046FFF728FDB5
:100FC0000028F9D02046FFF72AFDC0B270BD00000E
:100FD0000038004070B504460D46144E04213046DA
:100FE000FFF7FBFB2046FFF7DBFF0020FFF7D8FFF2
:100FF000022C02D0032C09D011E00024285DFFF759
:10100000CFFF641CE4B2202CF8D308E00024FF20BA
:10101000FFF7C6FF2855641CE4B2202CF7D33046F6
:10102000BDE870400421FFF7DABB00000000024079
:10103000014A024900F013B8A1100008400700203F
:1010400002E008C8121F08C1002AFAD17047704791
:10105000002001E001C1121F002AFBD170472DE9D9
:10106000F04116460F460446002503E03946B047D6
:10107000641C6D1C20780028F8D12846BDE8F0815A
:1010800010B5064C20212046FFF70EFF0028F9D0AE
:101090002046BDE81040FFF76DBF00000010014082
:1010A00070B50446064DE1B22846FFF767FF802180
:1010B0002846FFF7F9FE0028F9D0204670BD000051
:1010C00000100140FFF7DCBF70B5FFF793FEFFF79C
:1010D0000BFAFFF7C7FC13A0FFF7AAFF19A0FFF751
:1010E000A7FF1F4C04212046FFF777FB1D48FFF7A1
:1010F000E9FF1C48FFF7E6FF1BA0FFF799FFFFF78A
:101100003DFD04212046FFF76AFB00244FF4E06513
:1011100029461848FFF7BCFD641C142CF8DB00209E
:1011200070BD0000B2E2CAD445535038323636D3CF
:10113000EB53544D3332CAFDBEDDB4ABCAE43A0AB8
:1011400000000000CAE4C8EBC8CED2E2D7D6B7FB95
:10115000B3CCD0F2BFAACABCD6B4D0D03A0A0000F1
:10116000000002403C070020B3CCD0F2BFAACABCAA
:101170002E0A000024000020F0B50B30154D20F0A1
:1011800007010024144A0FE003688B420BD38B4203
:1011900005D95E1A43184768C3E9006700E0436851
:1011A000136002C004E0021D10680028ECD1204644
:1011B000002802D1286808B10020F0BD064A07487F
:1011C0001060074A121A22F00702C0E90024012029
:1011D0002860D7E748070020440700207407002054
:1011E0007009002004120008000000204C070000D5
:1011F0002C020008241700084C07002024060000D9
:10120000501000085006007A030A0001600901022C
:101210000304060708090C61105037455350383253
:1012200036362057692D466920536F43206F666616
:10123000657273206120636F6D706C6574652061E9
:101240006E642073656C662D636F6E7461696E6584
:10125000642F10216E6574776F726B696E672073EF
:101260006F6C7574696F6E3B2069742063616E6288
:1012700065207573292010746F20686F7374206166
:1012800070706C69636123200573206F7218116997
:101290000004116C6F614C400566756E6329100582
:1012A00066726F6D7F90066F7468657242101220CF
:1012B00070726F636573736F722E205768656E204E
:1012C000206220CA216FA27370222C931004626FD7
:1012D0006F16600C7570206469726563746C795C5C
:1012E000101665787465726E616C20666C61736847
:1012F0002E20497420686140100B6E20696E746561
:1013000067726174C610046361636211B413696D1E
:101310007B33766571140C706572666F726D616EE9
:1013200063653514102073797374656DA1AF7320F4
:1013300072756E6E14A1F330052E20416C68140690
:1013400074656C792C4E237276EA2169550010057C
:10135000616461708A10042C2077A1126CDD3180E9
:101360001672172004206163ED25561620571006CB
:1013700061646465641C166F19140679206D6963D5
:101380000C1598240A726F6C6C65722D6261761070
:101390000764657369676E4B100574682073B41732
:1013A0006C65CE136E6EF910066976697479BF406C
:1013B0000B726F756768205541525468236661C689
:1013C000267249800F43505520414842206272697D
:1013D0006467651F572E0A63140545582069221457
:1013E000056D6F6E67DA250B266DE3953045D320CA
:1013F0000563686970C731233809696E6475737451
:10140000727921755B26734A12618110066E6E61D6
:101410002073B01568140B732C2052462062616C47
:1014200075BB1006706F7765726C154B2766691F68
:10143000140B6C6F77206E6F69736520C817656930
:101440008C911D27666966114129B3313B159F10A8
:10145000086167656D656E74A51764755938072E48
:101460002054687573151405726571756E16734690
:1014700018046E696D04790D1007636972637569EC
:10148000AF414B21C11143193B79E938082C696EF2
:10149000636C7564B01E721803132D657341631974
:1014A000715673834D020370076F636375707966BD
:1014B000A409504342206172656151A405616C73B7
:1014C0006F1719802804656E685C1004642076D359
:1014D00029F61965280654656E736956296824082B
:1014E0004C313036204469892DA103137269387C50
:1014F0000733322D62697420034A2C0424046F6E72
:101500002D8D1007205352414D2C0E1D7F032A7044
:10151000B41E692A034D7F036D74031005616C6965
:1015200074483D0803AF69730403294D7D2D0312F0
:1015300073882E6F260415683D9E03AD7103140653
:101540002073706563921663053404766963E54918
:1015500070217010054750494F601B436FA51E2036
:101560004103BC0620737563681F04151C2DE2033C
:101570001B7669E92D2303276578E37A654B2C0DEB
:1015800053444B2E0A536F706869737412041D67BD
:10159000044D7D031C062D6C657665CA0324056524
:1015A000617475D745A3180565206661A8580B734B
:1015B0006C6565702F77616B656935BB1180100AAA
:1015C000656E657267792D6566B21669E64C0656DA
:1015D0006F49502C9003295F600B726164696F2022
:1015E000626961733119834A2D981E6F04044DE1BD
:1015F0000321314676AF25F8152355841D09041DB6
:10160000F0031C0470757215054C0563656C6CC1A4
:10161000042D530541591006636F2D6578C92E6559
:10162000470471BA21981D800515DA222035180467
:10163000756C61DE1C06426C756574C8045C1168CB
:101640002C204444522C204C5644532C4C4344A34D
:101650000333657244166DC136674A44042E0A543A
:101660002E4E20160411786DEF051006496F542098
:10167000708C2DC1046DF2052DD4041DB40535D632
:101680001C0520656173A804353925E4751D1C040B
:101690002077613F0415BC15691944214855E52D93
:1016A000580319321D20051D05041A6DEC14056739
:1016B000206775C365CB1DF70519C92C05766965CB
:1016C000772E0555C825DF16771611081F64655C4F
:1016D000064E6CBD0458066372697074F32D930452
:1016E0007804415049931405777269742E3D5A0667
:1016F0002C09656C7020656D626513051D9A0328C1
:10170000046674773C519D1D3603518D0116FA4EC7
:101710002E1F0783010001120504D0068038016CDA
:0417200000010000C4
:040000050800018965
:00000001FF
